{
  "contractName": "Casino",
  "abi": [
    {
      "inputs": [],
      "stateMutability": "nonpayable",
      "type": "constructor"
    },
    {
      "anonymous": false,
      "inputs": [
        {
          "indexed": false,
          "internalType": "uint256",
          "name": "",
          "type": "uint256"
        },
        {
          "indexed": false,
          "internalType": "address",
          "name": "",
          "type": "address"
        },
        {
          "indexed": false,
          "internalType": "uint256",
          "name": "",
          "type": "uint256"
        }
      ],
      "name": "GamblerCreated",
      "type": "event"
    },
    {
      "stateMutability": "payable",
      "type": "fallback",
      "payable": true
    },
    {
      "inputs": [],
      "name": "_balanceOfCasino",
      "outputs": [
        {
          "internalType": "uint256",
          "name": "",
          "type": "uint256"
        }
      ],
      "stateMutability": "view",
      "type": "function",
      "constant": true
    },
    {
      "inputs": [],
      "name": "_casinoOwner",
      "outputs": [
        {
          "internalType": "address payable",
          "name": "",
          "type": "address"
        }
      ],
      "stateMutability": "view",
      "type": "function",
      "constant": true
    },
    {
      "inputs": [],
      "name": "_gamblerId",
      "outputs": [
        {
          "internalType": "uint256",
          "name": "",
          "type": "uint256"
        }
      ],
      "stateMutability": "view",
      "type": "function",
      "constant": true
    },
    {
      "stateMutability": "payable",
      "type": "receive",
      "payable": true
    },
    {
      "inputs": [
        {
          "internalType": "address",
          "name": "_gamblerWalletAddress",
          "type": "address"
        }
      ],
      "name": "createGambler",
      "outputs": [],
      "stateMutability": "payable",
      "type": "function",
      "payable": true
    },
    {
      "inputs": [
        {
          "internalType": "uint256",
          "name": "_GamblerId",
          "type": "uint256"
        }
      ],
      "name": "placeBetIfGamblerPreExist",
      "outputs": [],
      "stateMutability": "payable",
      "type": "function",
      "payable": true
    },
    {
      "inputs": [],
      "name": "checkExistingGambler",
      "outputs": [
        {
          "internalType": "uint256",
          "name": "id",
          "type": "uint256"
        }
      ],
      "stateMutability": "view",
      "type": "function",
      "constant": true
    },
    {
      "inputs": [],
      "name": "ownerAddsFundsToCasino",
      "outputs": [
        {
          "internalType": "bool",
          "name": "",
          "type": "bool"
        }
      ],
      "stateMutability": "payable",
      "type": "function",
      "payable": true
    },
    {
      "inputs": [
        {
          "internalType": "bool",
          "name": "win",
          "type": "bool"
        },
        {
          "internalType": "uint256",
          "name": "gambler_Id",
          "type": "uint256"
        }
      ],
      "name": "result",
      "outputs": [],
      "stateMutability": "nonpayable",
      "type": "function"
    }
  ],
  "bytecode": "0x6080604052670de0b6b3a764000060035534801561001c57600080fd5b50336000806101000a81548173ffffffffffffffffffffffffffffffffffffffff021916908373ffffffffffffffffffffffffffffffffffffffff160217905550610d738061006c6000396000f3fe60806040526004361061007f5760003560e01c80635e4a54dd1161004e5780635e4a54dd1461013857806360d9b7ca14610161578063acc7811a1461017d578063d2af611a146101a857610099565b8063136a55191461009b57806334b957b1146100c6578063469387c0146100e2578063497acfaf1461010d57610099565b36610099576001543461009291906107e7565b6001819055005b005b3480156100a757600080fd5b506100b06101c6565b6040516100bd919061082a565b60405180910390f35b6100e060048036038101906100db91906108a8565b6101cc565b005b3480156100ee57600080fd5b506100f76103ba565b60405161010491906108f6565b60405180910390f35b34801561011957600080fd5b506101226103de565b60405161012f919061082a565b60405180910390f35b34801561014457600080fd5b5061015f600480360381019061015a9190610975565b610479565b005b61017b600480360381019061017691906109b5565b61065f565b005b34801561018957600080fd5b50610192610730565b60405161019f919061082a565b60405180910390f35b6101b0610736565b6040516101bd91906109f1565b60405180910390f35b60025481565b6000341161020f576040517f08c379a000000000000000000000000000000000000000000000000000000000815260040161020690610a69565b60405180910390fd5b6000803073ffffffffffffffffffffffffffffffffffffffff163460405161023690610aba565b60006040518083038185875af1925050503d8060008114610273576040519150601f19603f3d011682016040523d82523d6000602084013e610278565b606091505b5091509150816102bd576040517f08c379a00000000000000000000000000000000000000000000000000000000081526004016102b490610b1b565b60405180910390fd5b60016002546102cc91906107e7565b600281905550604051806060016040528060025481526020018473ffffffffffffffffffffffffffffffffffffffff168152602001348152506004600060025481526020019081526020016000206000820151816000015560208201518160010160006101000a81548173ffffffffffffffffffffffffffffffffffffffff021916908373ffffffffffffffffffffffffffffffffffffffff160217905550604082015181600201559050507f76a0420893a914b4497effb2883090946806b1d2eed0d8cd534a7fe6938c076060025484346040516103ad93929190610b4a565b60405180910390a1505050565b60008054906101000a900473ffffffffffffffffffffffffffffffffffffffff1681565b600080600190505b6002548111610474573373ffffffffffffffffffffffffffffffffffffffff166004600083815260200190815260200160002060010160009054906101000a900473ffffffffffffffffffffffffffffffffffffffff1673ffffffffffffffffffffffffffffffffffffffff16036104615780915050610476565b808061046c90610b81565b9150506103e6565b505b90565b811561065b576000600260046000848152602001908152602001600020600201546104a49190610bc9565b9050804710156104e9576040517f08c379a00000000000000000000000000000000000000000000000000000000081526004016104e090610c57565b60405180910390fd5b7f76a0420893a914b4497effb2883090946806b1d2eed0d8cd534a7fe6938c0760826004600085815260200190815260200160002060010160009054906101000a900473ffffffffffffffffffffffffffffffffffffffff168360405161055293929190610b4a565b60405180910390a16000806004600085815260200190815260200160002060010160009054906101000a900473ffffffffffffffffffffffffffffffffffffffff1673ffffffffffffffffffffffffffffffffffffffff16836040516105b790610aba565b60006040518083038185875af1925050503d80600081146105f4576040519150601f19603f3d011682016040523d82523d6000602084013e6105f9565b606091505b50915091508161063e576040517f08c379a000000000000000000000000000000000000000000000000000000000815260040161063590610ce9565b60405180910390fd5b82600160008282546106509190610d09565b925050819055505050505b5050565b600034116106a2576040517f08c379a000000000000000000000000000000000000000000000000000000000815260040161069990610a69565b60405180910390fd5b6000803073ffffffffffffffffffffffffffffffffffffffff16346040516106c990610aba565b60006040518083038185875af1925050503d8060008114610706576040519150601f19603f3d011682016040523d82523d6000602084013e61070b565b606091505b5091509150346004600085815260200190815260200160002060020181905550505050565b60015481565b60008060003073ffffffffffffffffffffffffffffffffffffffff163460405161075f90610aba565b60006040518083038185875af1925050503d806000811461079c576040519150601f19603f3d011682016040523d82523d6000602084013e6107a1565b606091505b5091509150819250505090565b6000819050919050565b7f4e487b7100000000000000000000000000000000000000000000000000000000600052601160045260246000fd5b60006107f2826107ae565b91506107fd836107ae565b9250828201905080821115610815576108146107b8565b5b92915050565b610824816107ae565b82525050565b600060208201905061083f600083018461081b565b92915050565b600080fd5b600073ffffffffffffffffffffffffffffffffffffffff82169050919050565b60006108758261084a565b9050919050565b6108858161086a565b811461089057600080fd5b50565b6000813590506108a28161087c565b92915050565b6000602082840312156108be576108bd610845565b5b60006108cc84828501610893565b91505092915050565b60006108e08261084a565b9050919050565b6108f0816108d5565b82525050565b600060208201905061090b60008301846108e7565b92915050565b60008115159050919050565b61092681610911565b811461093157600080fd5b50565b6000813590506109438161091d565b92915050565b610952816107ae565b811461095d57600080fd5b50565b60008135905061096f81610949565b92915050565b6000806040838503121561098c5761098b610845565b5b600061099a85828601610934565b92505060206109ab85828601610960565b9150509250929050565b6000602082840312156109cb576109ca610845565b5b60006109d984828501610960565b91505092915050565b6109eb81610911565b82525050565b6000602082019050610a0660008301846109e2565b92915050565b600082825260208201905092915050565b7f4572726f7220706c6163696e6720626574202121000000000000000000000000600082015250565b6000610a53601483610a0c565b9150610a5e82610a1d565b602082019050919050565b60006020820190508181036000830152610a8281610a46565b9050919050565b600081905092915050565b50565b6000610aa4600083610a89565b9150610aaf82610a94565b600082019050919050565b6000610ac582610a97565b9150819050919050565b7f4661696c656420746f2073656e6420457468657220746f20636173696e6f0000600082015250565b6000610b05601e83610a0c565b9150610b1082610acf565b602082019050919050565b60006020820190508181036000830152610b3481610af8565b9050919050565b610b448161086a565b82525050565b6000606082019050610b5f600083018661081b565b610b6c6020830185610b3b565b610b79604083018461081b565b949350505050565b6000610b8c826107ae565b91507fffffffffffffffffffffffffffffffffffffffffffffffffffffffffffffffff8203610bbe57610bbd6107b8565b5b600182019050919050565b6000610bd4826107ae565b9150610bdf836107ae565b9250828202610bed816107ae565b91508282048414831517610c0457610c036107b8565b5b5092915050565b7f4e6f7420456e6f7567682066756e6473207269676874206e6f77000000000000600082015250565b6000610c41601a83610a0c565b9150610c4c82610c0b565b602082019050919050565b60006020820190508181036000830152610c7081610c34565b9050919050565b7f4661696c656420746f2073656e6420457468657220746f20636173696e6f206f60008201527f776e657200000000000000000000000000000000000000000000000000000000602082015250565b6000610cd3602483610a0c565b9150610cde82610c77565b604082019050919050565b60006020820190508181036000830152610d0281610cc6565b9050919050565b6000610d14826107ae565b9150610d1f836107ae565b9250828203905081811115610d3757610d366107b8565b5b9291505056fea2646970667358221220105a87da9ab4f7ca292ba0f9b337bb7be9ef23354a69f82d74a00c96ca1e665c64736f6c63430008130033",
  "immutableReferences": {},
  "source": "//SPDX-License-Identifier: MIT\r\npragma solidity ^0.8.16;\r\n\r\n////////////////// Using This ONE\r\n\r\ncontract Casino {\r\n    address payable public _casinoOwner;\r\n\r\n    constructor() {\r\n        _casinoOwner = payable(msg.sender);\r\n    }\r\n\r\n    uint256 public _balanceOfCasino;\r\n    uint256 public _gamblerId;\r\n    uint256 GAMBLER_CREATION_CHARGE = 1 ether;\r\n    struct Gambler {\r\n        uint256 gamblerIDS;\r\n        address gamblerWalletAdressS;\r\n        uint256 gamblePriceS;\r\n    }\r\n    mapping(uint256 => Gambler) private _gamblersList;\r\n    event GamblerCreated(uint256, address, uint256);\r\n\r\n    function createGambler(address _gamblerWalletAddress) public payable {\r\n        require(msg.value>0, \"Error placing bet !!\");\r\n        (bool sent, bytes memory data) = address(this).call{value: msg.value}(\"\");\r\n        require(sent, \"Failed to send Ether to casino\");\r\n        _gamblerId = _gamblerId + 1;\r\n        _gamblersList[_gamblerId] = Gambler(\r\n            _gamblerId,\r\n            _gamblerWalletAddress,\r\n            msg.value\r\n        );\r\n        emit GamblerCreated(_gamblerId, _gamblerWalletAddress, msg.value);\r\n    }\r\n\r\n    function placeBetIfGamblerPreExist(uint256 _GamblerId) public payable {\r\n        require(msg.value>0, \"Error placing bet !!\");\r\n        (bool sent, bytes memory data) = address(this).call{value: msg.value}(\"\");\r\n        _gamblersList[_GamblerId].gamblePriceS = msg.value;\r\n    }\r\n\r\n    function checkExistingGambler() public view returns (uint256 id)\r\n    {\r\n        for (uint256 i = 1; i <= _gamblerId; i++) {\r\n            if (_gamblersList[i].gamblerWalletAdressS == msg.sender) {\r\n                return i;\r\n            }\r\n        }\r\n    }\r\n\r\n    // how to add ETH to casino as an owner\r\n    function ownerAddsFundsToCasino() public payable returns (bool) {\r\n        (bool sent, bytes memory data) = address(this).call{value: msg.value}(\r\n            \"\"\r\n        );\r\n        return sent;\r\n    }\r\n\r\n    function result(bool win, uint256 gambler_Id) public {\r\n        if (win) {\r\n            uint256 prizeETH = _gamblersList[gambler_Id].gamblePriceS * 2;\r\n            require(\r\n                address(this).balance >= prizeETH,\r\n                \"Not Enough funds right now\"\r\n            );\r\n            emit GamblerCreated(\r\n                gambler_Id,\r\n                _gamblersList[gambler_Id].gamblerWalletAdressS,\r\n                prizeETH\r\n            );\r\n            (bool sent, bytes memory data) = _gamblersList[gambler_Id]\r\n                .gamblerWalletAdressS\r\n                .call{value: prizeETH}(\"\");\r\n            require(sent, \"Failed to send Ether to casino owner\");\r\n            _balanceOfCasino -= prizeETH;\r\n        }\r\n    }\r\n\r\n    receive() external payable {\r\n        _balanceOfCasino = msg.value + _balanceOfCasino;\r\n    }\r\n\r\n    fallback() external payable {}\r\n}\r\n",
  "sourcePath": "C:\\Users\\KIIT\\Desktop\\BlockchainProjects\\GameX\\React-Firebase\\magic-memory\\truffle\\contracts\\Casino.sol",
  "compiler": {
    "name": "solc",
    "version": "0.8.19+commit.7dd6d404.Emscripten.clang"
  },
  "schemaVersion": "3.4.13",
  "updatedAt": "2023-06-05T15:59:06.147Z",
  "networkType": "ethereum",
  "devdoc": {
    "kind": "dev",
    "methods": {},
    "version": 1
  },
  "userdoc": {
    "kind": "user",
    "methods": {},
    "version": 1
  }
}