{
  "contractName": "Casino",
  "abi": [
    {
      "inputs": [],
      "stateMutability": "nonpayable",
      "type": "constructor"
    },
    {
      "anonymous": false,
      "inputs": [
        {
          "indexed": false,
          "internalType": "uint256",
          "name": "",
          "type": "uint256"
        },
        {
          "indexed": false,
          "internalType": "address",
          "name": "",
          "type": "address"
        },
        {
          "indexed": false,
          "internalType": "uint256",
          "name": "",
          "type": "uint256"
        }
      ],
      "name": "GamblerCreated",
      "type": "event"
    },
    {
      "stateMutability": "payable",
      "type": "fallback",
      "payable": true
    },
    {
      "inputs": [],
      "name": "_balanceOfCasino",
      "outputs": [
        {
          "internalType": "uint256",
          "name": "",
          "type": "uint256"
        }
      ],
      "stateMutability": "view",
      "type": "function",
      "constant": true
    },
    {
      "inputs": [],
      "name": "_casinoOwner",
      "outputs": [
        {
          "internalType": "address payable",
          "name": "",
          "type": "address"
        }
      ],
      "stateMutability": "view",
      "type": "function",
      "constant": true
    },
    {
      "inputs": [],
      "name": "_gamblerId",
      "outputs": [
        {
          "internalType": "uint256",
          "name": "",
          "type": "uint256"
        }
      ],
      "stateMutability": "view",
      "type": "function",
      "constant": true
    },
    {
      "stateMutability": "payable",
      "type": "receive",
      "payable": true
    },
    {
      "inputs": [
        {
          "internalType": "address",
          "name": "_gamblerWalletAddress",
          "type": "address"
        }
      ],
      "name": "createGambler",
      "outputs": [],
      "stateMutability": "payable",
      "type": "function",
      "payable": true
    },
    {
      "inputs": [],
      "name": "ownerAddsFundsToCasino",
      "outputs": [
        {
          "internalType": "bool",
          "name": "",
          "type": "bool"
        }
      ],
      "stateMutability": "payable",
      "type": "function",
      "payable": true
    },
    {
      "inputs": [
        {
          "internalType": "bool",
          "name": "win",
          "type": "bool"
        },
        {
          "internalType": "uint256",
          "name": "gambler_Id",
          "type": "uint256"
        }
      ],
      "name": "result",
      "outputs": [],
      "stateMutability": "nonpayable",
      "type": "function"
    }
  ],
  "bytecode": "0x6080604052670de0b6b3a764000060035534801561001c57600080fd5b50336000806101000a81548173ffffffffffffffffffffffffffffffffffffffff021916908373ffffffffffffffffffffffffffffffffffffffff160217905550610a768061006c6000396000f3fe6080604052600436106100595760003560e01c8063136a55191461007557806334b957b1146100a0578063469387c0146100bc5780635e4a54dd146100e7578063acc7811a14610110578063d2af611a1461013b57610073565b36610073576001543461006c91906105cb565b6001819055005b005b34801561008157600080fd5b5061008a610159565b604051610097919061060e565b60405180910390f35b6100ba60048036038101906100b5919061068c565b61015f565b005b3480156100c857600080fd5b506100d161030a565b6040516100de91906106da565b60405180910390f35b3480156100f357600080fd5b5061010e60048036038101906101099190610759565b61032e565b005b34801561011c57600080fd5b50610125610514565b604051610132919061060e565b60405180910390f35b61014361051a565b60405161015091906107a8565b60405180910390f35b60025481565b6000803073ffffffffffffffffffffffffffffffffffffffff1634604051610186906107f4565b60006040518083038185875af1925050503d80600081146101c3576040519150601f19603f3d011682016040523d82523d6000602084013e6101c8565b606091505b50915091508161020d576040517f08c379a000000000000000000000000000000000000000000000000000000000815260040161020490610866565b60405180910390fd5b600160025461021c91906105cb565b600281905550604051806060016040528060025481526020018473ffffffffffffffffffffffffffffffffffffffff168152602001348152506004600060025481526020019081526020016000206000820151816000015560208201518160010160006101000a81548173ffffffffffffffffffffffffffffffffffffffff021916908373ffffffffffffffffffffffffffffffffffffffff160217905550604082015181600201559050507f76a0420893a914b4497effb2883090946806b1d2eed0d8cd534a7fe6938c076060025484346040516102fd93929190610895565b60405180910390a1505050565b60008054906101000a900473ffffffffffffffffffffffffffffffffffffffff1681565b81156105105760006002600460008481526020019081526020016000206002015461035991906108cc565b90508047101561039e576040517f08c379a00000000000000000000000000000000000000000000000000000000081526004016103959061095a565b60405180910390fd5b7f76a0420893a914b4497effb2883090946806b1d2eed0d8cd534a7fe6938c0760826004600085815260200190815260200160002060010160009054906101000a900473ffffffffffffffffffffffffffffffffffffffff168360405161040793929190610895565b60405180910390a16000806004600085815260200190815260200160002060010160009054906101000a900473ffffffffffffffffffffffffffffffffffffffff1673ffffffffffffffffffffffffffffffffffffffff168360405161046c906107f4565b60006040518083038185875af1925050503d80600081146104a9576040519150601f19603f3d011682016040523d82523d6000602084013e6104ae565b606091505b5091509150816104f3576040517f08c379a00000000000000000000000000000000000000000000000000000000081526004016104ea906109ec565b60405180910390fd5b82600160008282546105059190610a0c565b925050819055505050505b5050565b60015481565b60008060003073ffffffffffffffffffffffffffffffffffffffff1634604051610543906107f4565b60006040518083038185875af1925050503d8060008114610580576040519150601f19603f3d011682016040523d82523d6000602084013e610585565b606091505b5091509150819250505090565b6000819050919050565b7f4e487b7100000000000000000000000000000000000000000000000000000000600052601160045260246000fd5b60006105d682610592565b91506105e183610592565b92508282019050808211156105f9576105f861059c565b5b92915050565b61060881610592565b82525050565b600060208201905061062360008301846105ff565b92915050565b600080fd5b600073ffffffffffffffffffffffffffffffffffffffff82169050919050565b60006106598261062e565b9050919050565b6106698161064e565b811461067457600080fd5b50565b60008135905061068681610660565b92915050565b6000602082840312156106a2576106a1610629565b5b60006106b084828501610677565b91505092915050565b60006106c48261062e565b9050919050565b6106d4816106b9565b82525050565b60006020820190506106ef60008301846106cb565b92915050565b60008115159050919050565b61070a816106f5565b811461071557600080fd5b50565b60008135905061072781610701565b92915050565b61073681610592565b811461074157600080fd5b50565b6000813590506107538161072d565b92915050565b600080604083850312156107705761076f610629565b5b600061077e85828601610718565b925050602061078f85828601610744565b9150509250929050565b6107a2816106f5565b82525050565b60006020820190506107bd6000830184610799565b92915050565b600081905092915050565b50565b60006107de6000836107c3565b91506107e9826107ce565b600082019050919050565b60006107ff826107d1565b9150819050919050565b600082825260208201905092915050565b7f4661696c656420746f2073656e6420457468657220746f20636173696e6f0000600082015250565b6000610850601e83610809565b915061085b8261081a565b602082019050919050565b6000602082019050818103600083015261087f81610843565b9050919050565b61088f8161064e565b82525050565b60006060820190506108aa60008301866105ff565b6108b76020830185610886565b6108c460408301846105ff565b949350505050565b60006108d782610592565b91506108e283610592565b92508282026108f081610592565b915082820484148315176109075761090661059c565b5b5092915050565b7f4e6f7420456e6f7567682066756e6473207269676874206e6f77000000000000600082015250565b6000610944601a83610809565b915061094f8261090e565b602082019050919050565b6000602082019050818103600083015261097381610937565b9050919050565b7f4661696c656420746f2073656e6420457468657220746f20636173696e6f206f60008201527f776e657200000000000000000000000000000000000000000000000000000000602082015250565b60006109d6602483610809565b91506109e18261097a565b604082019050919050565b60006020820190508181036000830152610a05816109c9565b9050919050565b6000610a1782610592565b9150610a2283610592565b9250828203905081811115610a3a57610a3961059c565b5b9291505056fea2646970667358221220c447ca6de8890525f64cef81f701c7f7fe3b1542c2234ed763ae8b995d025e8f64736f6c63430008130033",
  "immutableReferences": {},
  "source": "//SPDX-License-Identifier: MIT\r\npragma solidity ^0.8.16;\r\n\r\n////////////////// Using This ONE\r\n\r\ncontract Casino {\r\n    address payable public _casinoOwner;\r\n\r\n    constructor() {\r\n        _casinoOwner = payable(msg.sender);\r\n    }\r\n\r\n    uint256 public _balanceOfCasino;\r\n    uint256 public _gamblerId;\r\n    uint256 GAMBLER_CREATION_CHARGE = 1 ether;\r\n    struct Gambler {\r\n        uint256 gamblerIDS;\r\n        address gamblerWalletAdressS;\r\n        uint256 gamblePriceS;\r\n    }\r\n    mapping(uint256 => Gambler) private _gamblersList;\r\n    event GamblerCreated(uint256, address, uint256);\r\n\r\n    function createGambler(address _gamblerWalletAddress)\r\n        public\r\n        payable\r\n    {\r\n        (bool sent, bytes memory data) = address(this).call{value: msg.value}(\"\");\r\n        require(sent, \"Failed to send Ether to casino\");\r\n        _gamblerId = _gamblerId + 1;\r\n        _gamblersList[_gamblerId] = Gambler(\r\n            _gamblerId,\r\n            _gamblerWalletAddress,\r\n            msg.value\r\n        );\r\n        emit GamblerCreated(_gamblerId, _gamblerWalletAddress, msg.value);\r\n    }\r\n\r\n// how to add ETH to casino as an owner\r\n    function ownerAddsFundsToCasino() public payable returns(bool){\r\n        (bool sent, bytes memory data) = address(this).call{value: msg.value}(\"\");\r\n        return sent;\r\n    }\r\n\r\n    function result(bool win, uint256 gambler_Id) public {\r\n        if (win) {\r\n            uint prizeETH = _gamblersList[gambler_Id].gamblePriceS * 2;\r\n            require(address(this).balance >= prizeETH, \"Not Enough funds right now\");\r\n            emit GamblerCreated(gambler_Id, _gamblersList[gambler_Id].gamblerWalletAdressS, prizeETH );\r\n            (bool sent, bytes memory data) = _gamblersList[gambler_Id]                          \r\n                .gamblerWalletAdressS\r\n                .call{value: prizeETH}(\"\");\r\n            require(sent, \"Failed to send Ether to casino owner\");\r\n            _balanceOfCasino -= prizeETH; \r\n        }\r\n    }\r\n\r\n    receive() external payable {\r\n        _balanceOfCasino = msg.value + _balanceOfCasino;\r\n    }\r\n\r\n    fallback() external payable {}\r\n}\r\n",
  "sourcePath": "C:\\Users\\KIIT\\Desktop\\BlockchainProjects\\GameX\\React-Firebase\\magic-memory\\truffle\\contracts\\Casino.sol",
  "compiler": {
    "name": "solc",
    "version": "0.8.19+commit.7dd6d404.Emscripten.clang"
  },
  "schemaVersion": "3.4.13",
  "updatedAt": "2023-06-03T12:23:48.075Z",
  "networkType": "ethereum",
  "devdoc": {
    "kind": "dev",
    "methods": {},
    "version": 1
  },
  "userdoc": {
    "kind": "user",
    "methods": {},
    "version": 1
  }
}